:020000042000DA
:10000000554F5343000101000300000000000000B1
:100010004F000020CD00002071030020810300204C
:100020004300002045000020830300200000000062
:1000300000000000000000000000000000000000C0
:100040007047704770477047704770477047104B54
:10005000104A2DE9F041884607460021934202D01C
:1000600003F8011FFAE70C4B0C4CE41AA41000250E
:100070001E46A54205D056F8253003B198470135F4
:10008000F7E74146384600F00BF8BDE8F08100BFC5
:10009000070500203B050020400000204000002014
:1000A000094B00214FF07E5219605960D9605961A7
:1000B000196100219A601976DA611A625A629A62AD
:1000C000DA621A63704700BF08050020F0B52DED15
:1000D000048B9D4B85881E7E9FED9C7AD3ED020A92
:1000E00093ED034A93ED070A93ED088AD3ED093A9D
:1000F00000241C762C12962CD8BF2746EDB204F1B2
:100100000104E4B207EE905AC8BF9727904D962C91
:1001100088BF9724F8EEE77A05EB870705EB8404A0
:1001200067EE877AD7ED005A94ED007A37EE657A5C
:10013000E7EE875ADFED877AF4EEE75AF1EE10FA30
:10014000A8BFF0EE675ADFED847A65EEA75AD0EDCE
:10015000007AC3ED005AFAEEE07A16F001060CBF01
:1001600093ED016A9FED7D6AC3ED047A1EB976486E
:1001700090ED055A01E0B0EE675A07EE102A77EECF
:10018000C57AB8EE477A9FED763A764DDFED738A01
:100190009FED751ADFED751A87EE872A01EB820253
:1001A0002C46F0EE432AF7EE004ABFEE009A914249
:1001B00000F0C280FCEEC67AF0EE449AF8EE677A60
:1001C000E5EE049A76EE677A67EE837ABCEEE77A1C
:1001D00017EE106A06F07F0006EE906A05EB8007C6
:1001E0000130F8EE666A00F07F0005EB800097EDC5
:1001F000007A77EEE67AD0ED006A76EEC76A7F2E57
:10020000A7EEA67AF0EE686AF0EE477A88BFF1EEC4
:10021000477A69EEA77AE9EEA76A76EE866AF5EE86
:10022000C06AF1EE10FA89BFBCEEE67A74EEE66AB7
:10023000B8EE477A76EEC76A33EEA37A66EE807A36
:1002400067EE266ABCEEE67AB8EE477A36EEC77AF3
:1002500027EE227AFCEEC76A16EE906A06F07F005F
:1002600009EE906A04EB80070130F8EE699A00F01D
:100270007F0004EB8000D7ED006A37EE697AD0ED9D
:10028000009A79EEE69A7F2EE7EE296AB0EE667A5A
:1002900088BFB1EE667AE8EE077ABCEEE77AB8EE90
:1002A000477A37EEC77A27EE227AFCEEC77A17EE46
:1002B000906A06F07F0006EE906A04EB800701303A
:1002C000F8EE666A00F07F0004EB8000D7ED007A5C
:1002D00037EE667AD0ED006A76EEE76A7F2EE7EEBB
:1002E000267A88BFF1EE677A60EEA77AF4EEC97AD3
:1002F000F1EE10FA07DBF4EEE47AF1EE10FAA8BFA3
:10030000F0EE647A01E0FFEE007A27EEA77A36EE8F
:10031000256A27EEC77A35EE025AE7EE017A67EED4
:10032000A17AFDEEE77AE1EC017AFCEEC67AF8EE0E
:10033000677A36EE676A3AE7BDEC048B83ED016AB3
:1003400083ED055AF0BD00BF080500208180803B89
:1003500000F1000849FFB8463EC3AE370000000078
:1003600000008043DC2B0108CDCC4C3D0000004F49
:10037000024A137E43F001031376704708050020FC
:10038000704707EE901A9FED5A7AF8EEE77A27EE5B
:10039000877A072800F2AB80DFE800F0041D364FB3
:1003A00068819AA29FED537A67EE877AF5EEC07A5C
:1003B000F1EE10FA09DBB7EE007AF4EEC77AF1EE4F
:1003C00010FAA8BFF0EE477A01E0DFED4B7A4B4B15
:1003D000C3ED077A70479FED477A67EE877AF5EEAF
:1003E000C07AF1EE10FA09DBB7EE007AF4EEC77AC4
:1003F000F1EE10FAA8BFF0EE477A01E0DFED3E7AA9
:100400003E4BC3ED087A70479FED3A7A67EE877AE4
:10041000F5EEC07AF1EE10FA09DBB7EE007AF4EEF1
:10042000C77AF1EE10FAA8BFF0EE477A01E0DFEDEF
:10043000327A324BC3ED097A70479FED2E7A67EE20
:10044000877AF5EEC07AF1EE10FA09DBB7EE007AA2
:10045000F4EEC77AF1EE10FAA8BFF0EE477A01E0A9
:10046000DFED257A254BC3ED0A7A70479FED217A9F
:1004700067EE877AF5EEC07AF1EE10FA09DBB7EE97
:10048000007AF4EEC77AF1EE10FAA8BFF0EE477AE0
:1004900001E0DFED197A194BC3ED0B7A70479FED40
:1004A000157A67EE877AF5EEC07AF1EE10FA09DB7D
:1004B000B7EE007AF4EEC77AF1EE10FAA8BFF0EECC
:1004C000477A01E0DFED0C7A0C4BC3ED0C7A7047F4
:1004D000DFED0B7A094B27EE277A83ED037A70471D
:1004E000F7EE007A37EE277A044B83ED027A7047F5
:1004F0000820803A0AD7233C0000000008050020AD
:040500009A99993EED
:040000052000004F88
:00000001FF
